:400000000080002011000000410600004106000008B5044B1A6803F53F5302331A6000F017FB00BFFA46004010B5054C237833B9044B13B10448AFF300800123237010BDD7
:400040004081FF1F00000000780C0000084B10B51BB108490848AFF300800848036803B910BD074B002BFBD0BDE81040184700BF000000004481FF1F780C0000C880FF1F0A
:40008000000000007047000010B5104C2378012B02D10E2000F038FB2378022B02D10D2000F032FB2378032B02D10B2000F02CFB2378042B05D1072000F026FB034B002272
:4000C0001A7023780133237010BD00BF5C81FF1F08B50021084600F05BFCBDE80840014800F0EDBB7C0C000070B500F01FFBBC4C207000F015FB2378BA4C43EA0010C0B2AD
:400100007E28207014D1B84D0120697800F040FC31266B78B54A3046D65400F0DCFB6B78304601336B7000F013FDB14800F01CFD23787D2B14D1AC4D0120697800F028FC30
:4001400032266B78A94A3046D65400F0C4FB6B78304601336B7000F0FBFCA54800F004FD23787B2B14D1A04D0120697800F010FC33266B789D4A3046D65400F0ACFB6B7887
:40018000304601336B7000F0E3FC994800F0ECFC2378772B0ED1944B597859B10139C9B25970924B202501205D5400F0F1FB284600F091FB2378BE2B14D18B4D01206978E1
:4001C00000F0E6FB34266B78884A3046D65400F082FB6B78304601336B7000F0B9FC844800F0C2FC2378BD2B14D17F4D0120697800F0CEFB35266B787C4A3046D65400F008
:400200006AFB6B78304601336B7000F0A1FC784800F0AAFC2378BB2B14D1734D0120697800F0B6FB36266B78704A3046D65400F052FB6B78304601336B7000F089FC6C48DE
:4002400000F092FC2378B72B0BD1012000F045FBFFF73EFF6749654800F005FD624B00225A702378DE2B14D15F4D0120697800F08FFB37266B785D4A3046D65400F02BFBED
:400280006B78304601336B7000F062FC584800F06BFC2378DD2B14D1534D0120697800F077FB38266B78514A3046D65400F013FB6B78304601336B7000F04AFC4C4800F069
:4002C00053FC2378DB2B14D1474D0120697800F05FFB39266B78454A3046D65400F0FBFA6B78304601336B7000F032FC404800F03BFC2378D72B0DD13B4D0120697800F0C9
:4003000047FB6B78394A3120D05400F0E4FA6B7801336B702378EE2B0DD1334D0120697800F036FB6B78314A3120D05400F0D3FA6B7801336B702378ED2B14D12A4D0120F9
:40034000697800F025FB30266B78284A3046D65400F0C1FA6B78304601336B7000F0F8FB234800F001FC2378EB2B0DD11E4D0120697800F00DFB6B781C4A3120D05400F051
:40038000AAFA6B7801336B702378E72B1BD1012000F0A3FA0021084600F0FAFA134800F08EFA124800F0E0FB114800F0DDFB0E4B0E485978002220248A4202D014540132D5
:4003C000FAE700225A7000F0B1F90F2803D00A2000F0F4FAF7E7BDE8704000F0ADB900BF7481FF1F6381FF1F5C81FF1F6481FF1F830C0000850C000008B562B600F0BAFA90
:4004000000F03CFB00F096FB00F07AFB054800F043FB054800F052FB044800F0C1FBFFF757FEFEE7E90000008900000085000000F8B572B6674A684D1378002443F0040367
:400440001370062707FB045300219A881868013400F001FC0A2C604EF4D1002504FB0562134653F83C0FB2F844205968013500F0E7FB032DF2D15948594D002450F8041FCB
:4004800004F1105303F1220221F0FF062333C9B20B4452005B0002329A4206D012F8027C12F801EC07F806E0F5E7A8420C44E5D14C4A4D4C13784D4D43F002031370137C35
:4004C0004B4F43F0020313742378A2F5863243F040032370413A1378002643F010031370444A454B07CA03C31A80444AB83B07CA03C31A80424A434B03CB1060516093E836
:40050000070003C542F6DF612A803F4A1925137843F0080313703D4B61221A703C4AA3F5F0631D801823137051801371394B02221A70032108224FF040231A7083F80012C8
:40054000354B36491B78DBB20B70354B1A8041F2512223F8022C3B784FF4F07003F0010343EA460600F030FB013D06F003062FD0032EF0D12B4B4FF480721A802A490722E8
:400580001A70482000220A7088701A70022203F8032C264A264D137843F0030313701B4B81221A7003F5F723012204331A70214B214A1B78DBB203F007011B0911705370D0
:4005C0001E4B44221A7094E80F0007C52B80F8BDFEE700BFE8460040860C0000FCFFFF474000004803500140A0430040305100402542004034030048C05100404003004804
:40060000225100404C0300482243004000480040824000400043004008010049A1460040224200400440004006400040A2430040B0430040CF0100496E5800407658004012
:4006400008B500F0D1FA03680C2B00D1FEE7FEE780B51148114B0025C0B1A3F1100192C922460439161BB74204D051F8046F42F8046BF7E7114653F8046C8C1AA64202D0ED
:4006800041F8045BF9E701381033E5E700F0B2FAFFF7B2FEFEE700BF01000000180D0000104A114B10B41A60104A114C1368114843F4007313600023032B98BF54F823209B
:4006C0004FEA830188BF0C4A0133302B4250F3D10A4B1A780A4B1A700A4B064A10BC1A60FFF7A6BE0004FA050CED00E014ED00E0000000000080FF1F41060000BC7600409C
:40070000C080FF1F08ED00E0044A137803F00F0343EA0010C0B21070704700BF10510040014B18780009704711510040014B18780009704731510040014B1878000970472A
:400740008345004010B50B4C237803F09F032370237803F0F0032370237843F0100318432070012000F040F9237803F0EF03237010BD00BF2051004038B505460E4C002066
:40078000237843F020032370237803F0BF03237000F02AF9237803F0F0032370207840F0100028432070012000F01EF9237803F0EF03237038BD00BF205100402DE9F047EB
:4007C000334C344D2378344E03F08003DBB223702B78324F03F0F00343F00F032B703378DFF8BCA003F0F00333703B784FF4CA7803F0F0033B70237803F0DF03237023788E
:4008000043F040032370002000F0EEF82378012043F01003237000F0E7F89AF800902378002003F0EF03237000F0DEF82378012043F01003237000F0D7F823785FFA89F970
:4008400003F0EF0319F0080F23701DD10A2000F0CBF8237803F0BF032370237803F08003DBB223702B7803F0F0032B70337803F0F00343F00F0333703B7803F0F00343F098
:400880000F033B70BDE8F087B8F10108BBD1E0E7205100402251004023510040245100402151004010B50446FFF788FF2009FFF763FF04F00F00BDE81040FFF75DBF38B5D7
:4008C00005460078012428B1FFF7ECFF285D0134E4B2F8E738BDFFF7E5BF10B50446FFF76DFF2009FFF72EFF04F00F00BDE81040FFF728BF08B5282000F060F80320FFF7A0
:4009000021FF052000F05AF80320FFF71BFF0F2000F054F80320FFF715FF012000F04EF80220FFF70FFF052000F048F80620FFF7D4FF0E20FFF7D1FF2C20FFF7CEFF082079
:40094000FFF7CBFF0120FFF7C8FF0C20FFF7C5FF0320FFF7C2FFBDE80840052000F02EB808B50C20FFF7B9FF014B01221A7008BD5E81FF1F10B5054C63781BB9FFF7BAFF6B
:4009800001236370BDE81040FFF7EABF5E81FF1F032811D8DFE800F00205080B81F0800008E0A1F1400004E0A1F16C0001E0A1F12C00C0B2FFF791BF7047000038B50446F8
:4009C000084DB4F5004F05D9286800F0FDF8A4F50044F6E7034B58686043BDE8384000F0F3B800BFCC80FF1F024B1B7A584300F0EBB800BFCC80FF1F134A137803F00103F3
:400A00001370937803F0FC039370104B1A7802F0CF021A701A7842F030021A701A7802F0F0021A701A7842F00F021A70084A137843F0010313700123A2F80330A2F80530C3
:400A4000044B00221A707047004F00400B4F0040014F0040034F0040074A137843F001031370137C43F00103137492F85D3B43F0010382F85D3B7047A343004008B5054943
:400A80000B781BB9FFF7B8FF01230B70BDE80840FFF7E2BF6081FF1F064A8023136002F688321268E021D065034A1170A2F207321360704780E100E007E400E0064A012303
:400AC000136002F688321268E0211064034A1170A2F540721360704780E100E000E400E0064B72221A7020225A70062203F85E2C472203F84E2C0022DA7070478865004046
:400B000010B500F069F80446094A137843F020031370537843F010035370D37843F01003D37000F031F82046BDE8104000F058B89865004008B505490B781BB9FFF7D0FF1E
:400B400001230B70BDE80840FFF7DABF6181FF1F034A13785B07FCD4024B1870704700BF6B6500404B65004010B5064B04461B783BB100218BB2E05C013110B1FFF7E8FFBC
:400B8000F8E710BD6181FF1F044A137843F001031370137C43F0010313747047A2430040074A0223136002F688321268E0215064044A11706FF440710A441360704700BFE9
:400BC00080E100E001E400E00230800803D000BF01380046FCD17047EFF3108072B6704780F31088704700BF014B1868704700BF3C81FF1F0E4B70B51E460E4C0025E41A52
:400C0000A410A54204D056F8253098470135F8E700F068F8084B094C1E46E41AA4100025A54204D056F8253098470135F8E770BDF00C0000F00C0000F00C0000F80C000004
:400C400010B5431E0A44914204D011F8014B03F8014FF8E710BD03460244934202D003F8011BFAE77047034611F8012B03F8012B002AF9D170470000000000005772697432
:400C8000653A000A0D00004F00400C00005100401000405100403000F0510040100000000140001000140140000480180140800300400140000A004C0140000200500140FF
:400CC000200018450040A4020048080060520040AC020048060000180140B4020048800043000000F8B500BFF8BC08BC9E4670474D000000A1060000F8B500BFF8BC08BCE2
:400D00009E46704729000000180D0000C880FF1F7800000038000000000000000000E02EC05D00001800000000366E010000000000000000000000000000000000000000CC
:400D4000000000000000000000000000E00C000000000000000000000000000000000000000000000000000000000000000000000000000000000000000000000000000087
:400D8000000000000000000000000000DC80FF1F000000000000000000000000000000000000000000000000000000000000000000000000000000000000000000000000B9
:400DC00000000000000000000000000000000000000000000000000000000000000000000000000000000000000000000000000000000000000000000000000000000000F3
:400E000000000000000000000000000000000000000000000000000000000000000000000000000000000000000000000000000000000000000000000000000000000000B2
:400E40000000000000000000000000000000000000000000000000000000000000000000000000000000000000000000000000000000000000000000000000000000000072
:400E80000000000000000000000000000000000000000000000000000000000000000000000000000000000000000000000000000000000000000000000000000000000032
:020000040003F7
:0200000480007A
:40000000024F0040036500400115014001170140151801403F1901406D1A01404A1B0140034001400241014004420140014301400548014003490140084D0140025001400A
:400040000151014001100A36887289388B0FE601E204820888048E0896029A02A301A401A801AC01B002B204B408B501B601BE15D418D604D804D904DB04DF010021030233
:400080000501071409100A200E290F4010281180144016011728180419081A031B011C111D011E081F202220251027112B802E402FA83440350136A037043D403E2A451029
:4000C00047444A044B104D404E114F1057025B015C10600463826C286D906E14762B772883408E408F10C07BC2F6C4F7CAF1CCF0CEF0D070D230D621D80D000C0271041000
:40010000058006AC07130F0C100912D01414152C174319711A031B061F08201021712240230E262028DC2A2230E031C0330F341F3530380839223A023B083E043F104002D3
:40014000454049FF4A074BFF4C404D204EF04F055008580459045A045F01604061A862406320801381048204830A840A850C86148813890C8A0C8E08902092C09440962023
:4001800098E09C809D089E209F06A510A615A8E0AB01AC03AE14B010B103B2E0B310B40FB70CBA20BB20BE01BF05C026C105C50BC6E0C7C0C829C9FFCAFFCBFFCEF0CF4441
:4001C000D00CD401D804D904DA04DB04DF01E6C0EA40EB020102031004400511072009020A280D800E240F401080110413201514160119071A081B201D101E401F082044AE
:40020000210A2320242025802680274429012B402F283080311833103680384839043E164004471048804C044E104F8050045410550156015D285E418104874888108A1375
:400240008B808C108D2191109214974099089F44A410A690A788C0FCC2FEC4EECA61CC1ECEEAD024D230D6F032803580CC309D80A68012809D80A680C4109D8065048180E1
:400280009D80D880E22081049D04E6801040771088408F10C408DE04E201E40210011C01000F0000000000000202020280800000400000001F1060001C0863007F18000054
:4002C000000000E3031C00E101FF000073000C04008023000244000004E700180CC00000083C00C22C00101F0F3840C0800022080000040065030200010C00E021FFFFFF15
:4003000062A0F0410C000000000002110404040400000001000000000000400200103010001010120000000000000000000000000000000080004080800080000000000056
:40034000F00000FB0B00000000000000007F7F0000000000F00000F000000000000000000000000000000000000000000000000000000000000000000000000000000000A9
:40038000000000000000000000000000000000000000000000000000000000000000000000000000000000000000000000000000000000000000000000000000000000003D
:4003C00000000000000000000000000000000000000000000000000000000000000000000000000000000000000000000000000000000000000000000000000000000000FD
:4004000000000000000000000000000000000000000000000000000000000000000000000000000000000000000000000000000000000000000000000000000000000000BC
:40044000000000000000000000000000000000000000000000000000000000000000000000000000000000000000000000000000000000000000000000000000000000007C
:0200000490006A
:0400000000004005B7
:0200000490105A
:04000000BC90ACAF55
:0200000490303A
:02000000D3C566
:0200000490402A
:4000000000000000000000000000000000000000000000000000000000000000000000000000000000000000000000000000000000000000000000000000000000000000C0
:400040000000000000000000000000000000000000000000000000000000000000000000000000000000000000000000000000000000000000000000000000000000000080
:400080000000000000000000000000000000000000000000000000000000000000000000000000000000000000000000000000000000000000000000000000000000000040
:4000C0000000000000000000000000000000000000000000000000000000000000000000000000000000000000000000000000000000000000000000000000000000000000
:0200000490501A
:0C00000000012E16106900012E1BE42EDA
:00000001FF