:400000000080002011000000690500006905000008B5044B1A6803F53F5302331A6000F0ABFA00BFFA46004010B5054C237833B9044B13B10448AFF300800123237010BDF6
:400040004081FF1F00000000A00A0000084B10B51BB108490848AFF300800848036803B910BD074B002BFBD0BDE81040184700BF000000004481FF1FA00A0000C880FF1FBE
:400080000000000010B5104C2378012B02D10E2000F0CEFA2378022B02D10D2000F0C8FA2378032B02D10B2000F0C2FA2378042B05D1072000F0BCFA034B00221A702378B0
:4000C0000133237010BD00BF5C81FF1F08B50021084600F0F1FBBDE80840014800F083BBA40A000038B500F0B5FA964C207000F0ABFA2378944C43EA0010C0B27E282070A5
:400100000DD1924D0120697800F0D6FB6B78904A3120D05400F073FB6B7801336B7023787D2B0DD1894D0120697800F0C5FB6B78874A3220D05400F062FB6B7801336B70AB
:4001400023787B2B0DD1814D0120697800F0B4FB6B787F4A3320D05400F051FB6B7801336B702378772B0ED1784B597859B10139C9B25970764B202501205D5400F09CFB09
:40018000284600F03CFB2378BE2B0DD16F4D0120697800F091FB6B786D4A3420D05400F02EFB6B7801336B702378BD2B0DD1674D0120697800F080FB6B78654A3520D05464
:4001C00000F01DFB6B7801336B702378BB2B0DD15E4D0120697800F06FFB6B785C4A3620D05400F00CFB6B7801336B702378B72B0BD1012000F005FBFFF768FF55495448B2
:4002000000F046FC514B00225A702378DE2B0DD14E4D0120697800F04FFB6B784C4A3720D05400F0ECFA6B7801336B702378DD2B0DD1464D0120697800F03EFB6B78444A3F
:400240003820D05400F0DBFA6B7801336B702378DB2B0DD13D4D0120697800F02DFB6B783B4A3920D05400F0CAFA6B7801336B702378D72B0DD1354D0120697800F01CFB97
:400280006B78334A3120D05400F0B9FA6B7801336B702378EE2B0DD12C4D0120697800F00BFB6B782A4A3120D05400F0A8FA6B7801336B702378ED2B0DD1244D012069787D
:4002C00000F0FAFA6B78224A3020D05400F097FA6B7801336B702378EB2B0DD11B4D0120697800F0E9FA6B78194A3120D05400F086FA6B7801336B702378E72B15D1012047
:4003000000F07FFA0021084600F0D6FA104800F06AFA0E4B0E485978002220248A4202D014540132FAE700225A7000F093F90F2803D00A2000F0D6FAF7E7BDE8384000F032
:400340008FB900BF7281FF1F6181FF1F5C81FF1F6281FF1FAA0A000008B562B600F09EFA00F020FB044800F02BFB044800F03AFBFFF7ACFEFEE700BFE500000085000000CC
:40038000F8B572B65E4A5F4D1378002443F004031370062606FB045300219A881868013400F06EFB0A2CF5D1574B584A584D92E8030083E803005748002450F8041F04F1E0
:4003C000105303F1140221F0FF061533C9B20B4452005B000232934206D012F8027C12F801EC07F806E0F5E7A8420C44E5D14A4A4A4C13784A4D43F002031370137C494F7E
:4004000043F0020313742378A2F5863243F040032370413A1378192643F010031370424A424B07CA03C31A80414A424B03CB1060516093E8070003C52A803F4A032113787F
:40044000002543F0080313703C4B61221A7042F6DF62A3F5F0631A8018229A70022283F8802208224FF040231A7083F80012344B34491B78DBB20B70334B1A8041F2512247
:4004800023F8022C3B784FF4F07003F0010343EA450500F0B9FA013E05F003052FD0032DF0D12A4B4FF480721A80294907221A70482000220A7088701A70022203F8032C23
:4004C000244A254D137843F0010313701B4B81221A7003F5F723012204331A701F4B204A1B78DBB203F007011B09117053701D4B44221A7094E80F0007C52B80F8BDFEE703
:40050000E8460040AB0A0000184500405000004824000048FCFFFF4703500140A04300403051004025420040580000481051004022510040640000482243004000480040CA
:4005400008010049A1460040224200400440004006400040A2430040B0430040CF0100496E5800407658004008B500F05DFA03680C2B00D1FEE7FEE780B51148114B00257F
:40058000C0B1A3F1100192C922460439161BB74204D051F8046F42F8046BF7E7114653F8046C8C1AA64202D041F8045BF9E701381033E5E700F03EFAFFF7CEFEFEE700BF24
:4005C00001000000200B0000104A114B10B41A60104A114C1368114843F4007313600023032B98BF54F823204FEA830188BF0C4A0133302B4250F3D10A4B1A780A4B1A70F7
:400600000A4B064A10BC1A60FFF7BABE0004FA050CED00E014ED00E0000000000080FF1F69050000BC760040C080FF1F08ED00E0044A137803F00F0343EA0010C0B21070E6
:40064000704700BF10510040014B18780009704711510040014B18780009704731510040014B1878000970478345004010B50B4C237803F09F032370237803F0F003237030
:40068000237843F0100318432070012000F040F9237803F0EF03237010BD00BF2051004038B505460E4C0020237843F020032370237803F0BF03237000F02AF9237803F01A
:4006C000F0032370207840F0100028432070012000F01EF9237803F0EF03237038BD00BF205100402DE9F047334C344D2378344E03F08003DBB223702B78324F03F0F003F7
:4007000043F00F032B703378DFF8BCA003F0F00333703B784FF4CA7803F0F0033B70237803F0DF032370237843F040032370002000F0EEF82378012043F01003237000F087
:40074000E7F89AF800902378002003F0EF03237000F0DEF82378012043F01003237000F0D7F823785FFA89F903F0EF0319F0080F23701DD10A2000F0CBF8237803F0BF0302
:400780002370237803F08003DBB223702B7803F0F0032B70337803F0F00343F00F0333703B7803F0F00343F00F033B70BDE8F087B8F10108BBD1E0E72051004022510040CA
:4007C00023510040245100402151004010B50446FFF788FF2009FFF763FF04F00F00BDE81040FFF75DBF38B505460078012428B1FFF7ECFF285D0134E4B2F8E738BDFFF71E
:40080000E5BF10B50446FFF76DFF2009FFF72EFF04F00F00BDE81040FFF728BF08B5282000F060F80320FFF721FF052000F05AF80320FFF71BFF0F2000F054F80320FFF7DE
:4008400015FF012000F04EF80220FFF70FFF052000F048F80620FFF7D4FF0E20FFF7D1FF2C20FFF7CEFF0820FFF7CBFF0120FFF7C8FF0C20FFF7C5FF0320FFF7C2FFBDE875
:400880000840052000F02EB808B50C20FFF7B9FF014B01221A7008BD5E81FF1F10B5054C63781BB9FFF7BAFF01236370BDE81040FFF7EABF5E81FF1F032811D8DFE800F0DC
:4008C0000205080B81F0800008E0A1F1400004E0A1F16C0001E0A1F12C00C0B2FFF791BF7047000038B50446084DB4F5004F05D9286800F089F8A4F50044F6E7034B586818
:400900006043BDE8384000F07FB800BFCC80FF1F024B1B7A584300F077B800BFCC80FF1F134A137803F001031370937803F0FC039370104B1A7802F0CF021A701A7842F082
:4009400030021A701A7802F0F0021A701A7842F00F021A70084A137843F0010313700123A2F80330A2F80530044B00221A707047004F00400B4F0040014F0040034F004008
:40098000074A137843F001031370137C43F00103137492F85D3B43F0010382F85D3B7047A343004008B505490B781BB9FFF7B8FF01230B70BDE80840FFF7E2BF6081FF1FDB
:4009C000064A8023136002F688321268E021D065034A1170A2F207321360704780E100E007E400E0064A0123136002F688321268E0211064034A1170A2F540721360704795
:400A000080E100E000E400E00230800803D000BF01380046FCD17047EFF3108072B6704780F31088704700BF014B1868704700BF3C81FF1F0E4B70B51E460E4C0025E41A14
:400A4000A410A54204D056F8253098470135F8E700F04CF8084B094C1E46E41AA4100025A54204D056F8253098470135F8E770BDF80A0000F80A0000F80A0000000B0000C9
:400A800003460244934202D003F8011BFAE77047034611F8012B03F8012B002AF9D170470000000057726974653A00004F00400C00005100401000405100403000C051006E
:400AC000401000F0510040100000000140001000140140000800400140000A004C014000020050014020004300000000F8B500BFF8BC08BC9E4670474D000000C9050000BF
:400B0000F8B500BFF8BC08BC9E46704729000000200B0000C880FF1F7800000038000000000000000000E02EC05D00001800000000366E01000000000000000000000000E4
:400B40000000000000000000000000000000000000000000E70A00000000000000000000000000000000000000000000000000000000000000000000000000000000000084
:400B80000000000000000000000000000000000000000000DC80FF1F00000000000000000000000000000000000000000000000000000000000000000000000000000000BB
:400BC00000000000000000000000000000000000000000000000000000000000000000000000000000000000000000000000000000000000000000000000000000000000F5
:400C000000000000000000000000000000000000000000000000000000000000000000000000000000000000000000000000000000000000000000000000000000000000B4
:400C40000000000000000000000000000000000000000000000000000000000000000000000000000000000000000000000000000000000000000000000000000000000074
:400C80000000000000000000000000000000000000000000000000000000000000000000000000000000000000000000000000000000000000000000000000000000000034
:020000040003F7
:0200000480007A
:40000000014F00400107014001090140040A0140010B014002400140014101400542014002430140015101400A4BEE08AF20B820BE10D804DF011F203280CC10A680128058
:400040006302A680C410D640AF01EE10000200000000000002020202F00000FB0B00000000000000007F7F0000000000F00000F0000000000000000000000000000000007F
:400080000000000000000000000000000000000000000000000000000000000000000000000000000000000000000000000000000000000000000000000000000000000040
:4000C0000000000000000000000000000000000000000000000000000000000000000000000000000000000000000000000000000000000000000000000000000000000000
:4001000000000000000000000000000000000000000000000000000000000000000000000000000000000000000000000000000000000000000000000000000000000000BF
:40014000000000000000000000000000000000000000000000000000000000000000000000000000000000000000000000000000000000000000000000000000000000007F
:0200000490006A
:0400000000004005B7
:0200000490105A
:04000000BC90ACAF55
:0200000490303A
:02000000424D6F
:0200000490402A
:4000000000000000000000000000000000000000000000000000000000000000000000000000000000000000000000000000000000000000000000000000000000000000C0
:400040000000000000000000000000000000000000000000000000000000000000000000000000000000000000000000000000000000000000000000000000000000000080
:400080000000000000000000000000000000000000000000000000000000000000000000000000000000000000000000000000000000000000000000000000000000000040
:4000C0000000000000000000000000000000000000000000000000000000000000000000000000000000000000000000000000000000000000000000000000000000000000
:0200000490501A
:0C00000000012E16106900012E1A52B6E5
:00000001FF